:100000000C947C020C9499020C9499020C94990221
:100010000C9499020C9499020C9499020C949902F4
:100020000C9499020C9499020C94201E0C945B1E63
:100030000C9499020C9499020C9499020C949902D4
:100040000C9499020C9499020C9499020C949902C4
:100050000C9499020C9499020C9499020C949902B4
:100060000C9499020C9499020C9499020C949902A4
:100070000C9499020C9499020C9499020C94990294
:100080000C9499020C9499020C9499020C947505A5
:100090000C9499020C9499020C9499020C94990274
:1000A0000C9499020C9499020C949902B51DB21DFE
:1000B000AF1DAC1DA91DA61DA31DA01D9D1D9A1D34
:1000C000971D941D911D8E1D8B1D881D851D821DE4
:1000D0007F1D7C1D791D761D731D701D6D1D6A1D94
:1000E000671D641D611D5E1D5B1D581D551D521D44
:1000F0004F1D4C1D491D461D431D401D3D1D3A1DF4
:10010000371D341D311D2E1D2B1D281D251D221DA3
:100110001F1D1C1D191D161D131D101D0D1D0A1D53
:10012000071D041D011DFE1CFB1CF81CF51C05A869
:100130004CCDB2D44EB93836A9020C50B99186884C
:10014000083CA6AAAA2ABE000000803F00010000C9
:100150008001120002000092014300030000D5015B
:100160000401030904D9011402030904EF01160371
:1001700003090407020C0001C11201803601813617
:100180001201000202000010C0167A0400010102F0
:10019000030109024300020100C03209040000010A
:1001A00002020100052400100105240101010424BC
:1001B0000206052406000107058203100040090419
:1001C0000100020A000000070503024000000705C5
:1001D000840240000004030904140359006F0075F1
:1001E00000720020004E0061006D006500000016E6
:1001F000035500530042002000530065007200695F
:100200000061006C0000000C033100320033003448
:1002100000350000006E616E00696E66000000002F
:10022000000000005F00000007000700147F147F3B
:1002300014242A7F2A122313086462364955225057
:100240000005030000001C2241000041221C001494
:10025000083E081408083E0808005030000008084E
:10026000080808006060000020100804023E5149A0
:10027000453E00427F400042615149462141454B85
:10028000311814127F1027454545393C4A494930F9
:1002900001710905033649494936064949291E00B5
:1002A00036360000005636000008142241001414AF
:1002B000141414004122140802015109063249792C
:1002C000413E7E1111117E7F494949363E414141EF
:1002D000227F4141221C7F494949417F0909090187
:1002E0003E4149497A7F0808087F00417F4100204C
:1002F00040413F017F081422417F404040407F023F
:100300000C027F7F0408107F3E4141413E7F090976
:1003100009063E4151215E7F09192946464949494E
:100320003101017F01013F4040403F1F2040201F1D
:100330003F4038403F6314081463070870080761A2
:1003400051494543007F414100020408102000410B
:10035000417F00040201020440404040400001028D
:10036000040020545454787F48444438384444446A
:1003700020384444487F3854545418087E090102F8
:100380000C5252523E7F0804047800447D40002005
:1003900040443D007F1028440000417F40007C0421
:1003A0001804787C0804047838444444387C1414D5
:1003B0001408081414187C7C080404084854545485
:1003C00020043F4440203C4040207C1C2040201C16
:1003D0003C4030403C44281028440C5050503C4491
:1003E00064544C44000836410000007F0000004186
:1003F0003608001008081008784641467800407A10
:1004000010F35A00A0724E18090010A5D4E800009D
:10041000E87648170000E40B54020000CA9A3B003B
:100420000000E1F505000080969800000040420FB2
:10043000000000A08601000000102700000000E876
:1004400003000000006400000000000A000000003B
:10045000000100000000002C76D888DC674F0823DC
:10046000DFC1DFAE59E1B1B796E5E3E453C63AE642
:1004700051997696E8E6C28426EB898C9B62ED4022
:100480007C6FFCEFBC9C9F40F2BAA56FA5F4900571
:100490005A2AF75C936B6CF9676DC11BFCE0E40DA5
:1004A00047FEF520E6B500D0ED902E030094357799
:1004B000050080841E080000204E0A000000C80CC1
:1004C000333333330F986E12831141EF8D2114892A
:1004D0003BE65516CFFEE6DB18D1844B381BF77C84
:1004E0001D901DA4BBE424203284725E228100C9C9
:1004F000F124ECA1E53D270011241FBECFEFDAE087
:10050000DEBFCDBF16E0A0E0B1E0E2E1F8E502C059
:1005100005900D92A630B107D9F719E0A6E0B6E034
:1005200001C01D92A539B107E1F70E94EA1A0C94A7
:10053000072C0C94000087E880937A000895982F88
:100540009F71906490937C00807280937B00809177
:100550007A00806480937A0080917A0086FDFCCFD7
:100560002091780030917900C90108950F931F936D
:10057000CF93DF93C0E0D0E0CE0167E270E0259634
:10058000AE0127E230E001E010E00E9490232596C2
:10059000CA35D10589F7DF91CF911F910F91089549
:1005A000AF92BF92CF92DF92EF92FF920F931F9381
:1005B0007C01CB01BA012BED3FE049E450EC0E94F5
:1005C000802820E030E044E353E40E9457260E9454
:1005D00054265B016C010027F7FC0095102FC80121
:1005E000B7010E94F2267B018C01C601B50120E013
:1005F00030E040E850EC0E9480289B01AC01C8012B
:10060000B7010E94EC250E94BF26CB011F910F91DC
:10061000FF90EF90DF90CF90BF90AF900895AF9292
:10062000BF92CF92DF92EF92FF920F931F937C01C4
:10063000CB01BA012BED3FE049E450EC0E94802849
:1006400020E030E044E353E40E9457260E94E32870
:100650005B016C010027F7FC0095102FC801B70162
:100660000E94F2267B018C01C601B50120E030E03A
:1006700040E850EC0E9480289B01AC01C801B70102
:100680000E94EC250E94BF26CB011F910F91FF9085
:10069000EF90DF90CF90BF90AF900895AF92BF9250
:1006A000CF92DF92EF92FF920F931F93FC01CB0149
:1006B00069017A0162E070E00E943E298B010E0F11
:1006C0001F1FC801B701A6010E940F035C018DE244
:1006D00090E0B701A6010E94D0029C01C8016DE222
:1006E00070E0A50101E010E00E9490231F910F919E
:1006F000FF90EF90DF90CF90BF90AF9008952F9232
:100700003F924F925F926F927F928F929F92AF92A1
:10071000BF92CF92DF92EF92FF920F931F93DF93DE
:10072000CF9300D00F92CDB7DEB78983292E3A013F
:1007300029013E2C48016B01AA24BB2423C0F701E8
:100740008081803211F4332031F4C801B60141E0D8
:1007500050E00E9455238A819B8101969B838A8366
:100760000F5F1F4F0894E11CF11CEA81FB81E61525
:10077000F7052CF30894A11CB11C860C971C089457
:10078000C11CD11CA414B50444F48981922D9C0190
:10079000890174011B821A82E8CF0F900F900F908D
:1007A000CF91DF911F910F91FF90EF90DF90CF904D
:1007B000BF90AF909F908F907F906F905F904F9081
:1007C0003F902F9008954F925F926F927F928F92F9
:1007D0009F92AF92BF92CF92DF92EF920F931F93AF
:1007E000CF93DF932C01490138015B016A01C0E01E
:1007F000D0E018C0F501019111915F01F6016191FE
:100800007191819191916F010E94BF269B01AC0172
:10081000C801B901A40194018301EE24E3940E946C
:100820007F032196C415D5052CF3DF91CF911F913D
:100830000F91EF90DF90CF90BF90AF909F908F90EF
:100840007F906F905F904F9008954F925F926F925C
:100850007F928F929F92AF92BF92CF92DF92EF9250
:100860000F931F93CF93DF932C01490138015B0154
:100870006A01C0E0D0E018C0F501019111915F015B
:10088000F60161917191819191916F010E94BF2652
:100890009B01AC01C801B901A40194018301EE24BC
:1008A000E3940E947F032196C415D5052CF3DF91B4
:1008B000CF911F910F91EF90DF90CF90BF90AF90AD
:1008C0009F908F907F906F905F904F9008954F9280
:1008D0005F926F927F928F929F92AF92BF92CF92D0
:1008E000DF92EF920F931F93CF93DF932C01490177
:1008F00038015B016A01C0E0D0E018C0F501019148
:1009000011915F01F60161917191819191916F0156
:100910000E94BF269B01AC01C801B901A40194014A
:100920008301EE24E3940E947F032196C415D5052C
:100930002CF3DF91CF911F910F91EF90DF90CF902B
:10094000BF90AF909F908F907F906F905F904F90EF
:1009500008954F925F926F927F928F929F92AF9283
:10096000BF92CF92DF92EF92FF920F931F93CF939C
:10097000DF932C013B014A015901CC24DD24C0E066
:10098000D0E025C0F301EC0FFD1F608171818281F1
:1009900093810E94BF267B018C01F401EC0FFD1FA7
:1009A00060817181828193810E94BF269B01AC018D
:1009B000C701B90142E050E023E030E08501EE24B8
:1009C000E3940E947F030894C11CD11C2496C41494
:1009D000D504C4F2DF91CF911F910F91FF90EF905A
:1009E000DF90CF90BF90AF909F908F907F906F904F
:1009F0005F904F900895EF920F931F93EE24E3942E
:100A00000E947F031F910F91EF9008952F923F92C4
:100A10004F925F926F927F928F929F92AF92BF920E
:100A2000CF92DF92EF92FF920F931F93DF93CF93BA
:100A300000D0CDB7DEB79A8389833B011A01290123
:100A40000E944D2389819A81B301A10192010E94E4
:100A5000FB0489819A81B101A70196010E944E038E
:100A60000E94B602C501B4014F89588D298D3A8D77
:100A70000E94A9048B8D9C8D6D8D7E8D4F8D58A10C
:100A800029A13AA10BA11CA10E9467048DA19EA1DE
:100A90006FA178A549A55AA52BA53CA50DA51EA516
:100AA0000E9425048FA598A969A97AA94BA95CA9D8
:100AB0002DA93EA90FA918AD0E94E3030E94692544
:100AC0000F900F90CF91DF911F910F91FF90EF90BA
:100AD000DF90CF90BF90AF909F908F907F906F905E
:100AE0005F904F903F902F9008951F920F920FB6F6
:100AF0000F9211248F939F93AF93BF938091EF0533
:100B0000882331F58091150690911606A09117065D
:100B1000B09118060196A11DB11D80931506909302
:100B20001606A0931706B0931806809119069091A7
:100B30001A06A0911B06B0911C060196A11DB11DBD
:100B40008093190690931A06A0931B06B0931C0677
:100B5000BF91AF919F918F910F900FBE0F901F90FB
:100B60001895CF92DF92EF92FF920F93E816F90655
:100B700094F0480F591FE416F5066CF4C616D70614
:100B800054F0260F371FC216D3062CF480E0003233
:100B900019F081E001C080E00F91FF90EF90DF90AD
:100BA000CF9008952F923F924F925F926F927F92D3
:100BB0008F929F92AF92BF92CF92DF92EF92FF926D
:100BC0000F931F93DF93CF93CDB7DEB728970FB660
:100BD000F894DEBF0FBECDBF2C013B015A83498381
:100BE00019014D8D5E8D8E199F099B012C193D09B0
:100BF000B901A69E9001A79E300DB69E300D11241E
:100C0000820F931F480F591FC801F301260C371C90
:100C1000A981BA81A40DB51DBC83AB8395012E0DAE
:100C20003F1D3E832D838C0C9D1C33C0D8016C91DD
:100C300024153505C4F0E615F705ACF0603299F0DF
:100C4000AF81B8856C912E153F056CF0AD81BE81EA
:100C50002A173B0744F4EC15FD052CF0E815F905BF
:100C600014F4603201F52F5F3F4F0F5F1F4F6F810C
:100C700078856F5F7F4F78876F83AB81BC812A1740
:100C80003B07A4F231964A0D5B1D29813A81820F00
:100C9000931FE215F30514F080E006C092018C0169
:100CA00058874F83EACF81E028960FB6F894DEBFCD
:100CB0000FBECDBFCF91DF911F910F91FF90EF90AD
:100CC000DF90CF90BF90AF909F908F907F906F906C
:100CD0005F904F903F902F9008951092BF00109218
:100CE000CF00089583E08093BF008FEF8093CF0003
:100CF0000895EF92FF920F931F93CF93DF9360912C
:100D00000D0670910E06615070409C01220F331F3A
:100D1000220F331FA901495B584FE901C751D94F31
:100D2000F901EB5DF94F9C011EC02F5F3F4FDA01C7
:100D30001496ED90FD900D911C911797ED92FD92F8
:100D40000D931D93AD018C819D81AE81BF818993EF
:100D50009993A993B99384819581A681B781819351
:100D60009193A193B19326173707FCF270930E0667
:100D700060930D06DF91CF911F910F91FF90EF903F
:100D80000895CF93DF9340919B0750919C0741506A
:100D90005040EC01CC0FDD1FCD51D94FFC01EE0FBF
:100DA000FF1FEE0FFF1FEB58F94F9C010EC02F5F86
:100DB0003F4F8A819B818993999384819581A681F4
:100DC000B78181939193A193B193241735077CF355
:100DD00050939C0740939B07DF91CF910895CF9349
:100DE000DF93409145075091460741505040EC0138
:100DF000CC0FDD1FC75CD84FFC01EE0FFF1FEE0FBD
:100E0000FF1FE756F94F9C010EC02F5F3F4F8A81AD
:100E10009B818993999384819581A681B7818193E0
:100E20009193A193B193241735077CF35093460710
:100E300040934507DF91CF910895CF93DF93409181
:100E400097075091980741505040EC01CC0FDD1F9F
:100E5000CF57D94FFC01EE0FFF1FEE0FFF1FEF54CE
:100E6000F94F9C010EC02F5F3F4F8A819B81899370
:100E7000999384819581A681B78181939193A19360
:100E8000B193241735077CF3509398074093970745
:100E9000DF91CF91089597FD0DC077FD0BC04535CB
:100EA000510544F480E090E0213331052CF081E0DD
:100EB00090E0089581E090E00895AF92BF92CF92C4
:100EC000DF92EF92FF920F931F93E0909400F090C7
:100ED0009500AA2797FDA095BA2FBC01CD010E94CD
:100EE000F22620E030E040E857E40E9480285B01D1
:100EF0006C0100E010E0C801B7010E94F0269B01E0
:100F0000AC01C601B5010E94EC2520E030E040E0D4
:100F100051E40E94802820E034E244EF5AE40E9429
:100F200057261F910F91FF90EF90DF90CF90BF90C9
:100F3000AF90089583E08093BF008FEF8093D1003E
:100F400082E88093C0003F9A87E08093C1001092AE
:100F5000C30008951092900082E08093910081E098
:100F600080937100789408959C016817790744F480
:100F7000CB010696821793071CF081E090E008955C
:100F8000C9010696861797071CF480E090E0089543
:100F900080E090E02617370714F481E090E0089590
:100FA0008091E9059091EA05181619065CF4809184
:100FB000ED059091EE0597FD05C001979093EE0524
:100FC0008093ED05089580917605909177052091A5
:100FD000E9053091EA05820F931F8435910564F489
:100FE0008091ED059091EE05181619062CF00196EA
:100FF0009093EE058093ED0508950F931F93CF9383
:10100000DF939B01C0919B07D0919C07C330D10512
:10101000FCF4FE01EE0FFF1FED51F94F9183808329
:101020008E01000F111F000F111F0B58194FB9012E
:10103000882777FD8095982F0E94F226F80160831B
:101040007183828393832196D0939C07C0939B07DF
:10105000DF91CF911F910F9108950F931F93CF931D
:10106000DF939B01C0914507D0914607C630D1055B
:10107000FCF4FE01EE0FFF1FE75CF84F91838083C5
:101080008E01000F111F000F111F0756194FB901D4
:10109000882777FD8095982F0E94F226F8016083BB
:1010A0007183828393832196D0934607C09345072B
:1010B000DF91CF911F910F9108950F931F93CF93BD
:1010C000DF939B01C0919707D0919807CC30D10551
:1010D000FCF4FE01EE0FFF1FEF57F94F9183808361
:1010E0008E01000F111F000F111F0F54194FB9016E
:1010F000882777FD8095982F0E94F226F80160835B
:101100007183828393832196D0939807C093970726
:10111000DF91CF911F910F9108952091ED053091AE
:10112000EE058091E9059091EA05280F391F80911D
:10113000760590917705820F931F8435910544F4CD
:10114000121613062CF43093EA052093E90508954E
:101150001092EE051092ED050895CF92DF92EF9276
:10116000FF920F931F93CF93DF93B5E7CB2EB6E09B
:10117000DB2EC0E0D0E03FC0F6016081718182814A
:1011800093812091210630912206409123065091AF
:1011900024060E94EC257B018C01F601608371839B
:1011A000828393836091AE057091AF05882777FDA8
:1011B0008095982F0E94F2269B01AC01C801B701CF
:1011C0000E94EC2520E030E040E252E40E947C28BE
:1011D000882364F0CE010E94C1068091F0059091B1
:1011E000F10501979093F1058093F005219684E035
:1011F00090E0C80ED91E80919B0790919C07C8175C
:10120000D9070CF4B9CFDF91CF911F910F91FF90C7
:10121000EF90DF90CF900895CF92DF92EF92FF9200
:101220000F931F93CF93DF9319E9C12E16E0D12EB0
:10123000C0E0D0E03FC0F60160817181828193817E
:1012400020912106309122064091230650912406D8
:101250000E94EC257B018C01F601608371838283FF
:1012600093836091CC057091CD05882777FD80959B
:10127000982F0E94F2269B01AC01C801B7010E9481
:10128000EC2520E030E040E252E40E947C288823F4
:1012900064F0CE010E94EF068091F0059091F10577
:1012A00001979093F1058093F005219684E090E0FA
:1012B000C80ED91E8091450790914607C817D907D7
:1012C0000CF4B9CFDF91CF911F910F91FF90EF9068
:1012D000DF90CF900895CF92DF92EF92FF920F931D
:1012E0001F93CF93DF9301EBC02E06E0D02EC0E01A
:1012F000D0E03FC0F60160817181828193812091AD
:1013000021063091220640912306509124060E9426
:10131000EC257B018C01F6016083718382839383CA
:101320006091DA057091DB05882777FD8095982F0D
:101330000E94F2269B01AC01C801B7010E94EC2576
:1013400020E030E040E252E40E947C28882364F0F0
:10135000CE010E941D078091F0059091F105019743
:101360009093F1058093F005219684E090E0C80EFB
:10137000D91E8091970790919807C817D9070CF448
:10138000B9CFDF91CF911F910F91FF90EF90DF9038
:10139000CF9008952F923F924F925F926F927F92DB
:1013A0008F929F92AF92BF92CF92DF92EF92FF9275
:1013B0000F931F93DF93CF93CDB7DEB72C970FB664
:1013C000F894DEBF0FBECDBF1C821B8208C1809087
:1013D000AE059090AF0500D02DB73EB72F5F3F4FC1
:1013E0003E832D830B811C81000F111F000F111FE5
:1013F000F801E95BF84F60817181828193810E94DD
:10140000BF266F83788789879A870751194FD8013C
:101410006D917D918D919C910E94BF262B013C0185
:101420002090E5053090E6056090E7057090E805AE
:101430000091E3051091E405E981FA81EE0FFF1FA9
:10144000ED51F94FFC87EB87E080F180E981FA816B
:10145000EE0FFF1FEE0FFF1FEB58F94F60817181F8
:10146000828193810E94BF265B016C018091AC0553
:101470009091AD05AD81BE818D939C938F819885B0
:10148000B201A1019301650154010E94D2050F90A0
:101490000F90882309F48FC0EB85FC8580819181B2
:1014A0009C015901273431051CF056E4A52EB12CBE
:1014B000E981FA81EE0FFF1FEE0FFF1FEB58F94F86
:1014C00060817181828193810E94BF266B01E090CF
:1014D0004507F090460726E0E216F10414F5F701FF
:1014E000EE0FFF1FE75CF84FB182A0828701000F6B
:1014F000111F000F111F0756194FB601882777FDDE
:101500008095982F0E94F226D8016D937D938D933C
:101510009C9313970894E11CF11CF0924607E0920B
:101520004507E0904507F0904607B6E0EB16F1045A
:1015300034F5F701EE0FFF1FE75CF84F26E030E0CF
:10154000A20EB31EB182A0828701000F111F000FEF
:10155000111F0756194FB601882777FD8095982FE0
:101560000E94F226D8016D937D938D939C931397DF
:101570000894E11CF11CF0924607E092450789812E
:101580009A810E94C1068B819C810E947906EB8121
:10159000FC813197FC83EB8329813A8121503040D3
:1015A0003A83298380910F069091100601969093BB
:1015B000100680930F0689819A8101969A83898308
:1015C00080919B0790919C07A981BA81A817B907C0
:1015D0000CF4FDCEEB81FC813196FC83EB83809192
:1015E0000D0690910E062B813C81281739071CF4BB
:1015F0001A821982E5CF2C960FB6F894DEBF0FBE83
:10160000CDBFCF91DF911F910F91FF90EF90DF90B1
:10161000CF90BF90AF909F908F907F906F905F9092
:101620004F903F902F9008952F923F924F925F924C
:101630006F927F928F929F92AF92BF92CF92DF92E2
:10164000EF92FF920F931F93DF93CF93CDB7DEB747
:101650002C970FB6F894DEBF0FBECDBF1C821B8245
:1016600008C18090CC059090CD0500D02DB73EB735
:101670002F5F3F4F3E832D830B811C81000F111F75
:10168000000F111FF801E95BF84F608171818281C1
:1016900093810E94BF266F83788789879A87075135
:1016A000194FD8016D917D918D919C910E94BF261B
:1016B0002B013C012090E5053090E6056090E705A0
:1016C0007090E8050091E3051091E405E981FA8145
:1016D000EE0FFF1FE75CF84FFC87EB87E080F1809F
:1016E000E981FA81EE0FFF1FEE0FFF1FE756F94F5A
:1016F00060817181828193810E94BF265B016C01B0
:101700008091CA059091CB05AD81BE818D939C934C
:101710008F819885B201A1019301650154010E9456
:10172000D2050F900F90882309F48FC0EB85FC85BC
:10173000808191819C0159012B3431051CF08AE490
:10174000A82EB12CE981FA81EE0FFF1FEE0FFF1FCB
:10175000E756F94F60817181828193810E94BF2693
:101760006B01E0909707F09098072CE0E216F104E7
:1017700014F5F701EE0FFF1FEF57F94FB182A0826A
:101780008701000F111F000F111F0F54194FB601D1
:10179000882777FD8095982F0E94F226D8016D93B7
:1017A0007D938D939C9313970894E11CF11CF09208
:1017B0009807E0929707E0909707F0909807BCE0B1
:1017C000EB16F10434F5F701EE0FFF1FEF57F94F59
:1017D00024E030E0A20EB31EB182A0828701000F88
:1017E000111F000F111F0F54194FB601882777FDE5
:1017F0008095982F0E94F226D8016D937D938D934A
:101800009C9313970894E11CF11CF0929807E092C6
:10181000970789819A810E94EF068B819C810E94A3
:101820007906EB81FC813197FC83EB8329813A8136
:10183000215030403A83298380910F069091100601
:1018400002969093100680930F0689819A810196E3
:101850009A8389838091450790914607A981BA812F
:10186000A817B9070CF4FDCEEB81FC813196FC83FF
:10187000EB8380910D0690910E062B813C812817F9
:1018800039071CF41A821982E5CF2C960FB6F8940A
:10189000DEBF0FBECDBFCF91DF911F910F91FF90A3
:1018A000EF90DF90CF90BF90AF909F908F907F9000
:1018B0006F905F904F903F902F9008952F923F929E
:1018C0004F925F926F927F928F929F92AF92BF9250
:1018D000CF92DF92EF92FF920F931F93DF93CF93FC
:1018E000CDB7DEB72A970FB6F894DEBF0FBECDBFD7
:1018F0001A82198292C08090DA059090DB0500D0A0
:101900002DB73EB72F5F3F4F3C832B8309811A8150
:10191000000F111F000F111FF801E95BF84F6081E4
:101920007181828193810E94BF266D837E838F8324
:1019300098870751194FF8016081718182819381E5
:101940000E94BF262B013C012090E5053090E60562
:101950006090E7057090E8050091E3051091E405BB
:10196000E985FA85EE0FFF1FEF57F94FE080F18010
:10197000E985FA85EE0FFF1FEE0FFF1FEF54F94FB9
:1019800060817181828193810E94BF265B016C011D
:101990008091D8059091D905EB81FC81918380835A
:1019A0008D819E81B201A1019301650154010E94C4
:1019B000D2050F900F908823E1F089859A850E94C7
:1019C0001D0789819A810E94790629813A812150D7
:1019D00030403A83298389859A8501979A87898738
:1019E00080910F06909110060496909310068093B4
:1019F0000F06E985FA853196FA87E987809197077E
:101A00009091980729853A85281739070CF473CFE8
:101A100089819A8101969A83898380910D0690919C
:101A20000E06E981FA81E817F9071CF41A8619866F
:101A3000E5CF2A960FB6F894DEBF0FBECDBFCF918B
:101A4000DF911F910F91FF90EF90DF90CF90BF90AB
:101A5000AF909F908F907F906F905F904F903F904E
:101A60002F9008950E94CA090E94140B0E945E0CD8
:101A700008952F923F924F925F926F927F928F9232
:101A80009F92AF92BF92CF92DF92EF92FF920F930D
:101A90001F93DF93CF93CDB7DEB728970FB6F89497
:101AA000DEBF0FBECDBFE7E42E2EE7E03E2E79EE7F
:101AB000472E76E0572E25E236E03A8329831886B2
:101AC0001F8289C0F2016080718082809380E981E9
:101AD000FA8160817181828193812BED3FE049E43D
:101AE00050EC0E9480287B018C0120E030E044E330
:101AF00053EC0E9457260E94E328F1012081318196
:101B0000428153810E94EC255B016C012091E50527
:101B10003091E6053E832D838091E7059091E8059D
:101B20009C838B83C601B5010E94BF2677FD3EC012
:101B3000C801B70120E030E044E353E40E94572697
:101B40000E9454269B01AC01C401B3010E94EB2505
:101B50007B018C010E94BF2677FD28C0ED81FE81AC
:101B6000BF01882777FD8095982F0E94F2269B0160
:101B7000AC01C601B5010E94EC250E94BF26653567
:101B80007105A4F42B813C81B901882777FD8095EC
:101B9000982F0E94F2269B01AC01C801B7010E9458
:101BA000EC250E94BF266133710504F18F81988571
:101BB0000E9479068F819885019698878F83E4E04B
:101BC000F0E02E0E3F1E4E0E5F1E29813A812C5FE3
:101BD0003F4F3A83298380910D0690910E06EF8145
:101BE000F885E817F9070CF46DCF0BC0F101A0825E
:101BF000B182C282D382F201E082F1820283138336
:101C0000D9CF28960FB6F894DEBF0FBECDBFCF91C7
:101C1000DF911F910F91FF90EF90DF90CF90BF90D9
:101C2000AF909F908F907F906F905F904F903F907C
:101C30002F900895EF92FF920F931F9380910C06BF
:101C40008823A1F18091150690911606A0911706A0
:101C5000B09118060E945D077B018C0120E030E006
:101C600040E85FE30E94472720E030E040E05FE388
:101C70000E945026882314F42B9A01C02B9880913F
:101C8000E1069091E2060E945D079B01AC01C8014C
:101C9000B7010E94EB2520E030E040E050E40E94D4
:101CA0007C28181624F410920C0601C02B981F9162
:101CB0000F91FF90EF900895EF92FF920F931F9373
:101CC00080910B068823A1F180911506909116064C
:101CD000A0911706B09118060E945D077B018C0148
:101CE00020E030E040E85FE30E94472720E030E05A
:101CF00040E05FE30E945026882314F42A9A01C032
:101D00002A988091E1069091E2060E945D079B016E
:101D1000AC01C801B7010E94EB2520E030E040E0B3
:101D200050E40E947C28181624F410920B0601C07F
:101D30002A981F910F91FF90EF900895EF92FF92D4
:101D40000F931F938091150690911606A091170688
:101D5000B09118060E945D077B018C0180911106ED
:101D6000909112060E945D079B01AC01C801B7016A
:101D70000E94EB2520E030E040E85FE30E947C28F1
:101D8000181614F580E00E949F02A0E0B0E0BC01AC
:101D9000CD0128E730E040E050E00E941F29FAE042
:101DA0009595879577956795FA95D1F76C5370401F
:101DB000804090400E94F2266093060670930706CA
:101DC0008093080690930906809115069091160657
:101DD000A0911706B09118060E945D077B018C0147
:101DE00080911306909114060E945D079B01AC013F
:101DF000C801B7010E94EB2520E030E040E85FE336
:101E00000E947C281816BCF481E00E949F02A0E08A
:101E1000B0E0BC01CD010E94F22620E030EC4FE79B
:101E200054E40E9457266093210670932206809303
:101E30002306909324061F910F91FF90EF90089531
:101E40004F925F926F927F928F929F92AF92BF92CA
:101E5000CF92DF92EF92FF920F931F9380910D0626
:101E600090910E0644970CF086C0809119069091CF
:101E70001A06A0911B06B0911C060E945D072DEC6E
:101E80003CEC4CE45EE30E947C2818160CF073C016
:101E9000809176059091770562E070E00E943E297E
:101EA000CB012091E9053091EA0540910606509159
:101EB00007066091080670910906820F931F0E9421
:101EC0000F037C01409106065091070660910806B9
:101ED000709109068DE290E00E94D0025C01609052
:101EE0000D0670900E064301880C991C880C991CF5
:101EF000A7E44A2EA7E05A2E480C591C0027F7FCED
:101F00000095102FC801B7010E94F226F2016083EC
:101F100071838283938384010751194FCC24B7FCCA
:101F2000C094DC2CC601B5010E94F226F801608342
:101F300071838283938385E296E0880E991E809157
:101F4000060690910706A0910806B0910906F401D3
:101F500080839183A283B3830894611C711C709267
:101F60000E0660920D061092190610921A06109233
:101F70001B0610921C061F910F91FF90EF90DF90AF
:101F8000CF90BF90AF909F908F907F906F905F9019
:101F90004F900895209821985098519827988598A7
:101FA00086980E949B020E949A0708950E94D61B61
:101FB0000E94EF1B8823E1F308951F93E1E6F0E010
:101FC00080E8808311E010830E94CA0F1092900075
:101FD00082E0809391001093710078940E94D60F54
:101FE0008FE30E949D2583E08093BF008FEF809355
:101FF000CF001F9108958F929F92AF92BF92CF9280
:10200000DF92EF92FF920F931F93CF93DF938DB7E1
:102010009EB782970FB6F8949EBF0FBE8DBFADB727
:10202000BEB711968091E9059091EA056091EB05A4
:102030007091EC05409176055091770520917805D7
:10204000309179050091740510917505C0900606D0
:10205000D0900706E0900806F0900906A0900D06C3
:10206000B0900E06E9EEF6E0CDB7DEB7FA83E9836D
:10207000E091E305F091E4051396FC93EE9312973B
:10208000E0919B07F0919C071596FC93EE931497B3
:10209000E3EEF6E01796FC93EE931697E5E7F6E08D
:1020A0001996FC93EE931897E091AE05F091AF0569
:1020B0001B96FC93EE931A97E091AC05F091AD0559
:1020C0001D96FC93EE931C97E0914507F09146070F
:1020D0001F96FC93EE931E97E9E3F7E05196FC936D
:1020E000EE935097E9E9F6E05396FC93EE935297FE
:1020F000E091CC05F091CD055596FC93EE93549765
:10210000E091CA05F091CB055796FC93EE93569754
:10211000E0919707F09198075996FC93EE935897A2
:10212000E1E8F6E05B96FC93EE935A97E1EBF6E07C
:102130005D96FC93EE935C97E091DA05F091DB05F8
:102140005F96FC93EE935E97E091D805F091D905E8
:102150009196FC93EE939097E7E48E2EE7E09E2E07
:102160000E9406058DB79EB782960FB6F8949EBF63
:102170000FBE8DBFDF91CF911F910F91FF90EF9018
:10218000DF90CF90BF90AF909F908F9008958F92E7
:102190009F92AF92BF92CF92DF92EF92FF920F93F6
:1021A0001F93CF93DF930E948D080E94AD080E9479
:1021B0000C090E946B090E94390D0E94320D8DB7E7
:1021C0009EB782970FB6F8949EBF0FBE8DBFADB776
:1021D000BEB711968091E9059091EA056091EB05F3
:1021E0007091EC0540917605509177052091780526
:1021F000309179050091740510917505C09006061F
:10220000D0900706E0900806F0900906A0900D0611
:10221000B0900E06E9EEF6E0CDB7DEB7FA83E983BB
:10222000E091E305F091E4051396FC93EE93129789
:10223000E0919B07F0919C071596FC93EE93149701
:10224000E3EEF6E01796FC93EE931697E5E7F6E0DB
:102250001996FC93EE931897E091AE05F091AF05B7
:102260001B96FC93EE931A97E091AC05F091AD05A7
:102270001D96FC93EE931C97E0914507F09146075D
:102280001F96FC93EE931E97E9E3F7E05196FC93BB
:10229000EE935097E9E9F6E05396FC93EE9352974C
:1022A000E091CC05F091CD055596FC93EE935497B3
:1022B000E091CA05F091CB055796FC93EE935697A3
:1022C000E0919707F09198075996FC93EE935897F1
:1022D000E1E8F6E05B96FC93EE935A97E1EBF6E0CB
:1022E0005D96FC93EE935C97E091DA05F091DB0547
:1022F0005F96FC93EE935E97E091D805F091D90537
:102300009196FC93EE939097F7E48F2EF7E09F2E33
:102310000E9406058DB79EB782960FB6F8949EBFB1
:102320000FBE8DBFDF91CF911F910F91FF90EF9066
:10233000DF90CF90BF90AF909F908F90089580E0F6
:102340006DE00E947C250E944D238AE090E06AE0C7
:1023500070E040E051E021E030E00E9444250E941E
:102360006925F1CF81E080930A060E949F110895AC
:102370002F923F924F925F926F927F928F929F9295
:10238000AF92BF92CF92DF92EF920F931F93DF93A2
:10239000CF93CDB7DEB728970FB6F894DEBF0FBE48
:1023A000CDBFDE011196E2EFF5E088E001900D92DD
:1023B0008150E1F766247724B7EE2B2EBFEF3B2E3A
:1023C000A8EC4A2E512C0E944D237E995FC00E949A
:1023D000F21B8237910509F459C080E090E060E07B
:1023E00070E049E051E021E030E00E94442580E0C7
:1023F00090E06AE070E040E051E021E030E00E94CF
:1024000044255E010894A11CB11C8824992480FCF9
:1024100003C064E170E002C063E270E0F501C080D7
:10242000D180C60149E150E027E030E000E111E051
:10243000EE24E3940E947F030894C11CD11CF50193
:10244000D182C082F5E5CF16D1041CF0F5013182AE
:1024500020820894811C911C82E090E0A80EB91E95
:1024600094E08916910499F60E9469250894611CEC
:10247000711C88EE93E0F2013197F1F70197D9F7DB
:10248000E8EE6E16E3E07E0609F09DCF28960FB6C3
:10249000F894DEBF0FBECDBFCF91DF911F910F919A
:1024A000EF90DF90CF90BF90AF909F908F907F90F4
:1024B0006F905F904F903F902F900895DC010D90AA
:1024C0000020E9F71197A81BB90BBD010E94A71CBA
:1024D000089580EC91E00E945E1282EC91E00E94EF
:1024E0005E128CEC91E00E945E128EED91E00E94F3
:1024F0005E1282EF91E00E945E128DEF91E00E94E9
:102500005E1280E292E00E945E1280E392E00E94FE
:102510005E128BE492E00E945E1280E692E00E94DE
:102520005E1289E792E00E945E1283E992E00E94C7
:102530005E128FE992E00E945E128EEA92E00E94A3
:102540005E128EEB92E00E945E1289EC92E00E9495
:102550005E1289EE92E00E945E128AEF92E00E9483
:102560005E1286E093E00E945E1280E193E00E949A
:102570005E1280E293E00E945E128FE293E00E947E
:102580005E128EE393E00E945E128DE493E00E945F
:102590005E1281E693E00E945E1280E793E00E9463
:1025A0005E1284E893E00E945E1287E993E00E9445
:1025B0005E1208957F928F929F92AF92BF92CF92B8
:1025C000DF92EF92FF920F931F93DF93CF93CDB7DC
:1025D000DEB764970FB6F894DEBF0FBECDBF782E7E
:1025E0008091150690911606A0911706B0911806D5
:1025F0000E945D077B018C0120E030E040E752E45F
:102600000E9457260E942D270E94BF265B016C0165
:10261000C801B7010E94BF26DC01CB016CE370E06A
:102620000E943E299C018BE0A816B1043CF0AE014B
:102630004F5F5F4F2B303105ACF146C09AE0A916D1
:10264000B10451F1AE014F5F5F4F2A30310594F470
:10265000ADB7BEB718970FB6F894BEBF0FBEADBFEB
:10266000EDB7FEB7319612965C934E93119788ECB6
:1026700093E03BC0ADB7BEB718970FB6F894BEBF96
:102680000FBEADBFEDB7FEB7319612965C934E9379
:10269000119788ED93E029C0AE014F5F5F4F2A305C
:1026A000310594F4ADB7BEB718970FB6F894BEBF16
:1026B0000FBEADBFEDB7FEB7319612965C934E9349
:1026C000119789EB93E011C0ADB7BEB718970FB65D
:1026D000F894BEBF0FBEADBFEDB7FEB731961296F0
:1026E0005C934E9311978BEA93E093838283B58238
:1026F000A482378326830E94482B8DB79EB7089605
:102700000FB6F8949EBF0FBE8DBFAE014F5F5F4FF7
:10271000772021F0CA010E945E1208C080E090E09C
:1027200061E070E021E030E00E94442564960FB63D
:10273000F894DEBF0FBECDBFCF91DF911F910F91F7
:10274000FF90EF90DF90CF90BF90AF909F908F90D1
:102750007F900895CF92DF92EF92FF920F931F9395
:10276000DF93CF93CDB7DEB7A8970FB6F894DEBF4F
:102770000FBECDBF00D000D000D0EDB7FEB7319670
:102780007E010894E11CF11CADB7BEB71296FC9215
:10279000EE92119787EE93E0938382838091F00508
:1027A0009091F105958384830E94482BEDB7FEB785
:1027B00031968E010B5E1F4FADB7BEB712961C93BC
:1027C0000E93119783EF93E09383828380910F069A
:1027D00090911006958384830E94482B8DB79EB7F5
:1027E00006960FB6F8949EBF0FBE8DBF67017801A5
:1027F00008EC10E0189905C00E94F21B8037910583
:1028000089F41092EF05A8960FB6F894DEBF0FBEBC
:10281000CDBFCF91DF911F910F91FF90EF90DF908F
:10282000CF9008950E944D2380E00E94DA1280E04C
:1028300090E06AE070E0A60121E030E00E944425CB
:1028400080E090E064E170E0A70121E030E00E94C8
:1028500044250E94692588EE93E0F8013197F1F74D
:102860000197D9F7C7CF0F931F93DF93CF93CDB7BE
:10287000DEB7C25DD0400FB6F894DEBF0FBECDBF4D
:1028800081E00E94DA1200D000D000D0EDB7FEB790
:1028900031968E010F5F1F4FADB7BEB712961C93D6
:1028A0000E93119787EE93E0938382838091F005D6
:1028B0009091F105958384830E94482B8DB79EB734
:1028C00006960FB6F8949EBF0FBE8DBFC8010E943A
:1028D0005E1200D000D000D0EDB7FEB731968E0169
:1028E000005F1F4FADB7BEB712961C930E931197A2
:1028F00083EF93E09383828380910F06909110067B
:10290000958384830E94482B8DB79EB706960FB699
:10291000F8949EBF0FBE8DBFC8010E945E1200D00A
:1029200000D000D0EDB7FEB731968E01015E1F4F8B
:10293000ADB7BEB712961C930E9311978FEF93E02D
:102940009383828380919B0790919C0795838483D6
:102950000E94482B8DB79EB706960FB6F8949EBF7F
:102960000FBE8DBFC8010E945E1200D000D000D003
:10297000EDB7FEB731968E01035C1F4FADB7BEB702
:1029800012961C930E93119785E194E093838283B2
:102990008091450790914607958384830E94482B38
:1029A0008DB79EB706960FB6F8949EBF0FBE8DBF2B
:1029B000C8010E945E1200D000D000D0EDB7FEB773
:1029C00031968E01055A1F4FADB7BEB712961C93B4
:1029D0000E9311978AE294E0938382838091970704
:1029E00090919807958384830E94482B8DB79EB75A
:1029F00006960FB6F8949EBF0FBE8DBFC8010E9409
:102A00005E1200D000D000D0EDB7FEB731968E0137
:102A100007581F4FADB7BEB712961C930E93119770
:102A200080E494E09383828380910D0690910E065A
:102A3000958384830E94482B8DB79EB706960FB668
:102A4000F8949EBF0FBE8DBFC8010E945E12ADB745
:102A5000BEB718970FB6F894BEBF0FBEADBFEDB7A7
:102A6000FEB731968E0109561F4F12961C930E9396
:102A7000119784E594E09383828380910606909178
:102A80000706A0910806B091090684839583A68362
:102A9000B7830E94482B8DB79EB708960FB6F8945F
:102AA0009EBF0FBE8DBFC8010E945E12ADB7BEB7FC
:102AB00018970FB6F894BEBF0FBEADBFEDB7FEB707
:102AC00031968E010B541F4F12961C930E93119743
:102AD00089E694E093838283809121069091220677
:102AE000A0912306B091240684839583A683B7839F
:102AF0000E94482B8DB79EB708960FB6F8949EBFDC
:102B00000FBE8DBFC8010E945E12CE52DF4F0FB6BE
:102B1000F894DEBF0FBECDBFCF91DF911F910F9113
:102B200008950E9433148091EF05882311F00E94CC
:102B3000AA130895AF92BF92CF92DF92EF92FF92C5
:102B40000F931F93DF93CF93CDB7DEB72A970FB6BE
:102B5000F894DEBF0FBECDBF0E945E1200E010E011
:102B60007E010894E11CF11C7AE0A72EB12C63E8E9
:102B7000C62E64E0D62E4CC0C901C0970A97B0F0AB
:102B800080E894E00E945E12C8012A960FB6F8947D
:102B9000DEBF0FBECDBFCF91DF911F910F91FF9090
:102BA000EF90DF90CF90BF90AF900895C80153E0B1
:102BB000880F991F5A95E1F7000F111F080F191F71
:102BC00000531040020F131F8DB79EB708970FB622
:102BD000F8949EBF0FBE8DBFEDB7FEB73196ADB76F
:102BE000BEB71296FC92EE921197B382A282D58262
:102BF000C482378326830E94172B8DB79EB7089611
:102C00000FB6F8949EBF0FBE8DBFC7010E945E1223
:102C10000E94F21B9C019923DCF3AECFEF92FF924E
:102C20000F931F93CF93DF9386E894E00E949A1549
:102C3000F82EE92E8EE894E00E949A15AC010091DE
:102C40009707109198070C301105ACF58F2D9E2D2C
:102C50009C012535310514F024E530E0F801EE0F34
:102C6000FF1FEF57F94F37FF02C020E030E03183FC
:102C700020839A014133510514F020E330E0E8014C
:102C8000CC0FDD1FCC0FDD1FCF54D94F37FF02C053
:102C900020E030E0B901882777FD8095982F0E94C9
:102CA000F226688379838A839B830F5F1F4F10937B
:102CB000980700939707DF91CF911F910F91FF9095
:102CC000EF900895EF92FF920F931F93CF93DF93AE
:102CD00086E894E00E949A15F82EE92E8EE894E09A
:102CE0000E949A15AC0100914507109146070630E5
:102CF0001105ACF58F2D9E2D9C012535310514F065
:102D000024E530E0F801EE0FFF1FE75CF84F37FFD6
:102D100002C020E030E0318320839A014133510525
:102D200014F020E330E0E801CC0FDD1FCC0FDD1FF5
:102D3000C756D94F37FF02C020E030E0B9018827DD
:102D400077FD8095982F0E94F226688379838A8385
:102D50009B830F5F1F4F1093460700934507DF913A
:102D6000CF911F910F91FF90EF900895EF92FF92F6
:102D70000F931F93CF93DF9386E894E00E949A15F8
:102D8000F82EE92E8EE894E00E949A15AC0100918D
:102D90009B0710919C0703301105ACF58F2D9E2DDC
:102DA0009C012535310514F024E530E0F801EE0FE3
:102DB000FF1FED51F94F37FF02C020E030E03183B3
:102DC00020839A014133510514F020E330E0E801FB
:102DD000CC0FDD1FCC0FDD1FCB58D94F37FF02C002
:102DE00020E030E0B901882777FD8095982F0E9478
:102DF000F226688379838A839B830F5F1F4F10932A
:102E00009C0700939B07DF91CF911F910F91FF903B
:102E1000EF90089586E894E00E949A159093EA0551
:102E20008093E90597FF05C01092EA051092E90525
:102E300008952091760530917705820F931F85358F
:102E4000910544F084E590E0821B930B9093EA0592
:102E50008093E905089586E994E00E949A1590937D
:102E6000100680930F0608958EE994E00E949A154B
:102E70009093F1058093F005089586EA94E00E940E
:102E80009A1524E08030920714F08FEF93E097FFBB
:102E900002C080E090E06FEF73E00E943E29882737
:102EA00077FD8095982F0E94F226609321067093FB
:102EB0002206809323069093240680911506909114
:102EC0001606A0911706B0911806909314068093E9
:102ED0001306089581EB94E00E949A1524E0803057
:102EE000920714F08FEF93E09C0197FF02C020E05F
:102EF00030E0B901882777FD8095982F0E94F2264F
:102F000020E030E040EF52E40E94802820E030E0F2
:102F100040E85AE30E94802820E030E040E752E495
:102F20000E94EB25609306067093070680930806BF
:102F3000909309068091150690911606A0911706A8
:102F4000B091180690931206809311060895EF929F
:102F5000FF920F931F938C017B010E94ED29E01AD1
:102F6000F10A0894E11CF11CB7010E943E299C0162
:102F7000200F311FC9011F910F91FF90EF9008950D
:102F80002F923F924F925F926F927F928F929F9279
:102F9000AF92BF92CF92DF92EF92FF920F931F9367
:102FA000CF93DF93F5E72F2EF6E03F2EE3EE6E2E64
:102FB000E6E07E2E4424552488249924CC24DD2464
:102FC00080E090E06CE470E00E94A717EC01C1146F
:102FD000D10429F173EEE72E76E0F72E00E010E041
:102FE00017C0D701AD90BC90CE01B5010E94B407C7
:102FF000882341F080E090E06CE470E00E94A71725
:10300000EC01F2CF0F5F1F4FE2E0F0E0EE0EFF1E8B
:1030100080919B0790919C070817190714F3D3011F
:10302000CD93DC9380E090E0A0E2B1ECF1018083ED
:103030009183A283B38380919B0790919C07019613
:1030400090939C0780939B07C632D10524F4089483
:10305000411C511C05C0A69719F00894811C911CB5
:103060000894C11CD11C82E090E0680E791EA4E097
:10307000B0E02A0E3B1EB3E0CB16D10409F0A0CF7E
:103080008414950424F481E080930B0603C081E04E
:1030900080930C068091150690911606A091170654
:1030A000B09118069093E2068093E106DF91CF91EC
:1030B0001F910F91FF90EF90DF90CF90BF90AF9056
:1030C0009F908F907F906F905F904F903F902F9048
:1030D00008958F929F92AF92BF92CF92DF92EF921C
:1030E000FF920F931F9381E08093EF0510920B06E0
:1030F00010920C0680E090E0A0E0B0E0809306061D
:1031000090930706A0930806B093090680E090E02C
:1031100064E670E00E94A717C3971CF081E090E07E
:1031200002C08FEF9FEF9093EE058093ED05A09086
:103130007605B0907705C50162E070E00E943E29F7
:10314000CB01909581959F4F8A969093EA05809345
:10315000E90529E230E03093EC052093EB0510926D
:103160001506109216061092170610921806109265
:10317000190610921A0610921B0610921C06109245
:103180001206109211061092140610921306109255
:103190009C0710929B0710924607109245071092C9
:1031A00098071092970710920E0610920D06109233
:1031B000100610920F0625E030E03093F1052093C1
:1031C000F0052DB73EB7225230400FB6F8943EBFFF
:1031D0000FBE2DBFEDB7FEB7319620917805309127
:1031E00079050091740510917505C0900606D09080
:1031F0000706E0900806F090090649EE56E0ADB7E4
:10320000BEB712965C934E9311974091E30550918F
:10321000E405538342831582148243EE56E05783BC
:10322000468345E756E0518740874091AE0550916F
:10323000AF05538742874091AC055091AD05558746
:1032400044871786168649E357E0518B408B49E93E
:1032500056E0538B428B4091CC055091CD05558B58
:10326000448B4091CA055091CB05578B468B118EEC
:10327000108E41E856E0538F428F41EB56E0558F58
:10328000448F4091DA055091DB05578F468F40916E
:10329000D8055091D90551A340A369E270E0A5017A
:1032A000AA24BB24A7E48A2EA7E09A2E0E94060532
:1032B0002DB73EB72E5D3F4F0FB6F8943EBF0FBE01
:1032C0002DBF08EC10E017C0189905C00E94F21B32
:1032D0008037910549F41092EF0584EC94E00E9448
:1032E0005E120E9433140BC088EE93E0F801319710
:1032F000F1F70197D9F78091EF05882329F71F91FE
:103300000F91FF90EF90DF90CF90BF90AF909F9084
:103310008F9008950E9469180E94C017089589B17E
:10332000869580FF03C00E94200F2FC01F9B03C003
:103330000E9491152AC083B1869580FF03C00E9428
:10334000D00723C0489B03C00E94E3071EC0189B00
:1033500007C08091EF0591E089278093EF0515C0A4
:103360008FB1829586958695837080FF03C00E94F9
:103370008A190BC08FB182958695877080FF05C032
:1033800081E080930A060E949F110E945C0E0E94B9
:103390001A0E0E949E0E08958136910519F40E941E
:1033A000D00708958436910519F40E94E307089523
:1033B0008737910519F40E94200F089583379105EE
:1033C00019F40E94911508958237910519F40E940D
:1033D0008A1908958037910521F481E08093EF05E3
:1033E00008958137910519F40E94B21108958F361E
:1033F000910519F40E946A1708958D36910519F404
:103400000E943D1708958C36910519F40E943417D7
:1034100008958736910519F40E942B1708958F336C
:10342000910519F40E94691208958836910519F4DE
:103430000E940A1708958A36910519F40E94B6165B
:1034400008958B36910519F40E9462160895893605
:10345000910511F40E940E1608950E94F21B97FD2B
:1034600002C00E94CC190895AF92BF92CF92DF9212
:10347000EF92FF920F931F93CF93DF9380911506E6
:1034800090911606A0911706B0911806EC011092C3
:10349000BF001092CF002A9A2B9A8FED94E00E94E1
:1034A0005E120E94331413E0A12EBB24BA94B8EC30
:1034B000CB2ED12C0E944D238AE090E06AE070E090
:1034C00040EF54E021E030E00E9444258091150651
:1034D00090911606A0911706B09118060E945D07FC
:1034E0007B018C01CE010E945D079B01AC01C801EC
:1034F000B7010E94EB250E94BF266230710584F05F
:103500002A982B98A092BF00B092CF0085E090E05F
:1035100064E170E04AEF54E021E030E00E9444258D
:103520000E94F21B7E9903C08237910529F40E9404
:103530008A1910920A0615C07D9903C0813791053A
:1035400031F481E080930A060E949F110AC00E9414
:10355000692588EE93E0F6013197F1F70197D9F7E5
:10356000A9CFDF91CF911F910F91FF90EF90DF9046
:10357000CF90BF90AF9008950E94C7108091F00542
:103580009091F105181619062CF081E080930A0637
:103590000E94341A80919B0790919C07892B71F4AB
:1035A0008091450790914607892B41F480919707B8
:1035B00090919807892B11F40E94C01708950E94DA
:1035C0002D1A0E948F198091EF05882311F40E9413
:1035D000BC1A08958F929F92AF92BF92CF92DF92C2
:1035E000EF92FF920F931F93CF93DF9380E090E0D1
:1035F0000E94F2290E94DD0F0E94B8118DB79EB77C
:1036000082970FB6F8949EBF0FBE8DBFADB7BEB701
:1036100011968091E9059091EA056091EB05709112
:10362000EC05409176055091770520917805309111
:1036300079050091740510917505C0900606D0902B
:103640000706E0900806F0900906A0900D06B090DD
:103650000E06E9EEF6E0CDB7DEB7FA83E983E09136
:10366000E305F091E4051396FC93EE931297E09135
:103670009B07F0919C071596FC93EE931497E3EE4D
:10368000F6E01796FC93EE931697E5E7F6E01996A9
:10369000FC93EE931897E091AE05F091AF051B9661
:1036A000FC93EE931A97E091AC05F091AD051D9651
:1036B000FC93EE931C97E0914507F09146071F9607
:1036C000FC93EE931E97E9E3F7E05196FC93EE939B
:1036D0005097E9E9F6E05396FC93EE935297E09108
:1036E000CC05F091CD055596FC93EE935497E0915F
:1036F000CA05F091CB055796FC93EE935697E0914F
:103700009707F09198075996FC93EE935897E1E844
:10371000F6E05B96FC93EE935A97E1EBF6E05D964C
:10372000FC93EE935C97E091DA05F091DB055F96F0
:10373000FC93EE935E97E091D805F091D9059196B0
:10374000FC93EE939097E7E48E2EE7E09E2E0E9486
:1037500006058DB79EB782960FB6F8949EBF0FBE32
:103760008DBF0E9469180E94C01708EC10E009C0C4
:103770000E94DF1A88EE93E0F8013197F1F7019784
:10378000D9F780910A06882399F30E944D2380E09F
:1037900090E0DF91CF911F910F91FF90EF90DF901C
:1037A000CF90BF90AF909F908F90089581E08093CD
:1037B000D70080EA8093D80082E189BD09B400FE79
:1037C000FDCF80E98093D8001092E00010921D0692
:1037D00010921E068CE08093E20078940895809108
:1037E0001D0608952FB7F89480911D06882369F06F
:1037F00083E08093E9009BE68091E80085FD09C0A5
:1038000082FF03C09093E800F7CF2FBF2FEF3FEF69
:103810000CC09091F1008091E80085FD03C08BE61B
:103820008093E8002FBF292F30E0C90108952FB7FA
:10383000F89480911D06882311F490E010C083E075
:103840008093E9009091F200992349F48091E80077
:1038500082FF05C085FD03C08BE68093E8002FBF83
:10386000892F089580911D06882371F09FB7F894E1
:1038700083E08093E9002BE602C02093E80080916A
:10388000E80085FDFACF9FBF0895482F80911D065F
:103890008823D9F12FB7F89484E08093E9008091D0
:1038A0002006882341F08091E80085FD02C02FBFEB
:1038B00012C0109220069091E400975E34E080914F
:1038C000E80085FD13C02FBF8091E400891729F41B
:1038D00081E0809320068FEF089580911D06882354
:1038E000A1F02FB7F8943093E900E9CF4093F100AD
:1038F0008091E80085FD03C08AE38093E80085E0BD
:1039000080931F062FBF80E008958FEF0895282F22
:1039100080911D06882351F09FB7F89484E080932E
:10392000E9008091E80085FD03C09FBF8FEF0895F7
:103930002093F1008091E80085FD03C08AE3809325
:10394000E80085E080931F069FBF80E00895CF9335
:10395000DF93EC0180911D06882309F41CC13FB759
:10396000F89484E08093E90080912006882309F48C
:1039700008C18091E80085FD02C03FBF0CC11092D4
:103980002006FFC09091E400975E8091E80085FDDD
:1039900013C03FBF8091E400891721F481E0809338
:1039A0002006F9C080911D06882309F4F4C03FB7B2
:1039B000F894B093E900E9CF8091F200242F281BFE
:1039C000822F90E06817790708F4262F822F90E065
:1039D0008134910508F0C6C08A5A9F4FFC01EE0F52
:1039E000FF1F0590F491E02D099489918093F100D7
:1039F00089918093F10089918093F100899180935E
:103A0000F10089918093F10089918093F10089916F
:103A10008093F10089918093F10089918093F10066
:103A200089918093F10089918093F100899180932D
:103A3000F10089918093F10089918093F10089913F
:103A40008093F10089918093F10089918093F10036
:103A500089918093F10089918093F10089918093FD
:103A6000F10089918093F10089918093F10089910F
:103A70008093F10089918093F10089918093F10006
:103A800089918093F10089918093F10089918093CD
:103A9000F10089918093F10089918093F1008991DF
:103AA0008093F10089918093F10089918093F100D6
:103AB00089918093F10089918093F100899180939D
:103AC000F10089918093F10089918093F1008991AF
:103AD0008093F10089918093F10089918093F100A6
:103AE00089918093F10089918093F100899180936D
:103AF000F10089918093F10089918093F10089917F
:103B00008093F10089918093F10089918093F10075
:103B100089918093F10089918093F100899180933C
:103B2000F10089918093F10089918093F10089914E
:103B30008093F10089918093F10089918093F10045
:103B400089918093F10089918093F100899180930C
:103B5000F10089918093F10089918093F10089911E
:103B60008093F10089918093F1008091E80085FDB8
:103B700002C05093E800621B7109A0931F063FBF6B
:103B800004C0B4E040E45AE3A5E06115710509F012
:103B9000F9CE80E001C08FEFDF91CF9108959FB7FC
:103BA000F89480911F06882341F084E08093E90017
:103BB0008AE38093E80010921F069FBF08956091EA
:103BC000FA057091FB058091FC059091FD05089523
:103BD0008091FE0508958091FF050895809100066B
:103BE000089580911E060895282F9FB7F89480911C
:103BF0001D06882339F082E08093E9008091E80077
:103C000085FD03C09FBF8FEF089581EA8093F10087
:103C100080E28093F1001092F1001092F100109276
:103C2000F1001092F10081E08093F1001092F10018
:103C30002093F1008AE38093E8009FBF80E008951D
:103C40001F920F920FB60F9211248F939F93809122
:103C5000E1001092E100982F83FF11C01092E9005B
:103C600081E08093EB001092EC0082E18093ED0004
:103C700088E08093F00010921D0610921E0692FFBD
:103C800013C080911D06882379F080911F06882338
:103C900059F0815080931F06882331F484E080938B
:103CA000E9008AE38093E8009F918F910F900FBE07
:103CB0000F901F9018951F920F920FB60F9211241C
:103CC0000F931F932F933F934F935F936F937F9324
:103CD0008F939F93AF93BF93EF93FF931092E9005D
:103CE0008091E80083FF3CC14091F1003091F100E8
:103CF0008091F100682F70E02091F100922F80E018
:103D0000682B792B8091F100A82FB0E02091F10071
:103D1000922F80E0A82BB92B1091F1000091F100B7
:103D200082EF8093E800363009F05AC023E531E095
:103D3000A90145505040F901379785919491861714
:103D4000970701F5FA01859194918A179B07D1F4A1
:103D50009A012E5F3F4FF901659174912E5F3F4F9D
:103D6000F9014491212F30E0902F80E0282B392B4E
:103D70002F3F310519F010F02FEF30E0241758F4E1
:103D8000422F09C0295F3F4F495F5F4FF1E02D3758
:103D90003F0789F6E5C05EEF8091E800282F30E00C
:103DA000C90185709070892BB9F322FDDCC0342FD6
:103DB000413108F030E1232FCB0106C0FC01019610
:103DC000E491E093F10021502223C1F7630F711DAC
:103DD000431B5093E8004423F9F63031E9F2C3C0A5
:103DE000353061F48EEF8093E8008091E80080FF29
:103DF000FCCF862F80688093E300B5C0393051F541
:103E0000442309F0ADC060931D0610921E06109267
:103E10001F068EEF8093E80086E791E021E0209373
:103E2000E900FC010196E491E093EB00EE2369F0D8
:103E3000AC014F5F5F4FFC0184918093EC00CA019D
:103E40000196FA0134913093ED002F5F253039F758
:103E50008EE181C0383061F4403809F081C0809132
:103E6000E80080FFFCCF80911D068093F10050C0D8
:103E7000313289F4413A09F073C08091E80080FF43
:103E8000FCCFEAEFF5E081918093F10086E0E1302C
:103E9000F807C9F73DC03032A1F4413209F060C0E3
:103EA0008091E80082FFFCCFEAEFF5E08091F1001D
:103EB000819386E0E130F807C9F78BEF8093E80043
:103EC00027C0323251F4413209F04AC060931E06D5
:103ED0008091E80080FFFCCF1BC03323E9F4809180
:103EE000E80080FFFCCF423811F080E00DC0A093C5
:103EF000E9008091EB0090E025E0969587952A9562
:103F0000E1F781701092E9008093F1001092F100C6
:103F10008EEF8093E80027C0313011F0333001F587
:103F20004230F1F4672BE1F42A2F2F77822F815052
:103F30008430B0F48EEF8093E8002093E9003330B2
:103F400079F089E18093EB0081E090E002C0880F76
:103F5000991F2A95E2F78093EA001092EA0003C0C5
:103F600081E28093EB00FF91EF91BF91AF919F9120
:103F70008F917F916F915F914F913F912F911F9101
:103F80000F910F900FBE0F901F901895A1E1B0E018
:103F9000ECECFFE10C9451293C017F876E876A01AC
:103FA000FC0117821682838181FD03C06FEF7FEFD2
:103FB0006FC39E012F5F3F4F398B288BF301238105
:103FC000EE85FF8523FD859123FF8191FF87EE8795
:103FD000882309F45AC3853251F4EE85FF8523FD09
:103FE000859123FF8191FF87EE87853229F490E048
:103FF000B3010E94EB2AE2CF982F10E08824992485
:104000001032B0F49B3269F09C3228F4903251F0B7
:10401000933271F40BC09D3239F0903349F4116042
:1040200028C01260146025C0186023C0106121C030
:1040300017FD2AC0892F80538A3078F416FF06C0F6
:10404000FAE09F9E902C1124980E13C03AE0839EB4
:10405000802C1124880E10620CC09E3221F416FDB3
:1040600014C3106406C09C3611F4106802C0983660
:1040700059F4EE85FF8523FD959123FF9191FF87EC
:10408000EE87992309F0BCCF892F8554833020F423
:10409000812F8061905E07C0892F8556833008F09C
:1040A0009FC1812F8F7E86FD02C076E0972E6FE341
:1040B000F62EF822953619F4F0E4FF2A07C096365A
:1040C00019F420E8F22A02C091109A94F7FE0AC06F
:1040D0003BE3391518F45CE3B52E02C0B92CB39458
:1040E00027E009C047E0491520F4BB2447E0942E9F
:1040F000F7CF292DBB24C60104969D878C87F60136
:104100006081718182819381AE014F5F5F4F0B2D82
:104110000E94FD296C010981202E332400FF04C078
:1041200003FD02C01DE209C0F1FE02C01BE205C092
:10413000F2FC02C010E001C010E2C1018C7090706E
:10414000892BB9F1112311F483E001C084E08815B3
:1041500010F088240AC0881AF3FC07C080E290E0BF
:10416000B3010E94EB2A8A94C9F7112329F0812F09
:1041700090E0B3010E94EB2A23FE03C005E112E0A8
:104180000EC009E112E00BC0E114F10409F0805205
:1041900090E0B3010E94EB2A0F5F1F4F05C0EF2C88
:1041A000FF24F0E1EF22FF24F8018491882361F7D6
:1041B00014C1F7FE12C0BC0C24FE04C08A818133F6
:1041C00009F4BA941B141CF0BB24B3942DC0F8E07E
:1041D000FB1550F538E0B32E27C0F6FC25C0892D1D
:1041E00090E08C159D054CF02CEFC2162FEFD206F7
:1041F00024F030E8F32A01C09A94992049F0E2E0D3
:10420000F0E0EC0FFD1FE90DF11D80818033A1F37B
:10421000F7FE0AC0B92CB394892D90E0C816D906D0
:1042200014F0992401C09C18F7FC03C025E030E08D
:1042300009C01C141D041CF021E030E003C09601ED
:104240002F5F3F4F112311F02F5F3F4F992029F02F
:10425000892D90E00196280F391F882D90E02817AE
:10426000390714F0882401C0821A4F2C5524C2014A
:1042700089709070892B39F008C080E290E0B3011A
:104280000E94EB2A8A948820C1F7112329F0812FFC
:1042900090E0B3010E94EB2A43FE07C008C080E310
:1042A00090E0B3010E94EB2A8A948820C1F7F7FEC0
:1042B00046C08601D7FE02C000E010E076010894F7
:1042C000E11CF11CE01AF10A41E050E04C0F5D1FC7
:1042D000E40EF51E26014B185108892D90E0AA2402
:1042E000BB24A81AB90A5FEF0F3F150729F48EE225
:1042F00090E0B3010E94EB2AC016D10634F04016BC
:1043000051061CF4F701808101C080E30150104088
:104310000894E11CF11C0A151B052CF090E0B30178
:104320000E94EB2AE0CF0C151D0539F49A819633D3
:1043300018F4953311F424FE81E390E04BC08A8198
:10434000813309F00F7E90E0B3010E94EB2A99209F
:10435000A1F08EE290E0B3010E94EB2A12E0E1E0CE
:10436000F0E0EC0FFD1FE10FF11D1F5F808190E079
:10437000B3010E94EB2A9A9491F744FC03C085E6AE
:1043800090E002C085E490E0B3010E94EB2AD7FCE4
:1043900005C0C114D10441F404FF06C0D094C194F7
:1043A000D108D3948DE201C08BE290E0B3010E946A
:1043B000EB2A80E305C08F5F26EF3FEFC20ED31ECE
:1043C0003AE0C316D104BCF790E0B3010E94EB2A97
:1043D000C601C096B3010E94EB2ACC84DD8452C191
:1043E000933631F0933799F0933509F059C023C0D3
:1043F000F601808189835E010894A11CB11C22E032
:1044000030E0C20ED31E21E0E22EF12C12C0F601E4
:10441000A080B18016FD03C06FEF7FEF02C0692D51
:1044200070E022E030E0C20ED31EC5010E94E02AF7
:104430007C011F7713C0F601A080B18016FD03C078
:104440006FEF7FEF02C0692D70E022E030E0C20E16
:10445000D31EC5010E94D52A7C01106813FF07C036
:104460001BC080E290E0B3010E94EB2A8A94882D61
:1044700090E0E816F906A8F30FC0F50117FD859145
:1044800017FF81915F0190E0B3010E94EB2A811038
:104490008A940894E108F108E114F10471F7F2C07C
:1044A000943611F0993689F517FF08C0F60120817E
:1044B00031814281538184E090E00AC0F60180811D
:1044C00091819C01442737FD4095542F82E090E074
:1044D000C80ED91E9FE6F92EF12257FF09C050954C
:1044E0004095309521953F4F4F4F5F4F90E8F92A07
:1044F000CA01B901AE014F5F5F4F2AE030E00E9470
:104500006C2BE82EE889EE1A41C0953721F41F7E06
:104510002AE030E01CC0197F9F3661F0903720F40C
:10452000983509F0B2C00FC0903739F0983709F0CC
:10453000ACC004C028E030E00AC0106114FD146073
:1045400020E130E004C014FD166020E132E017FFE6
:1045500008C0F601608171818281938144E050E05E
:1045600008C0F60180819181BC0180E090E042E0CA
:1045700050E0C40ED51EAE014F5F5F4F0E946C2B02
:10458000E82E5889E51A8FE7F82EF122F6FE0BC0C7
:104590008EEFF822E91438F4F4FE07C0F2FC05C0EF
:1045A0009FEEF92202C01E2D01C0192DF4FE0DC090
:1045B000FE01EE0DF11D8081803319F4E9EEFE223B
:1045C00008C01F5FF2FE05C003C08F2D867809F07A
:1045D0001F5F0F2DF3FC14C0F0FE0FC0181510F074
:1045E0009E2C0BC09E2C980C911A182D06C080E2B0
:1045F00090E0B3010E94EB2A1F5F1815C0F304C0BE
:10460000181510F4811A01C0882404FF0FC080E33C
:1046100090E0B3010E94EB2A02FF1DC001FD03C020
:1046200088E790E00EC088E590E00BC0802F867888
:1046300091F001FF02C08BE201C080E2F7FC8DE245
:1046400090E0B3010E94EB2A06C080E390E0B30142
:104650000E94EB2A9A94E914C0F3EA94E1E0F0E0B6
:10466000EC0FFD1FEE0DF11D808190E0B3010E9463
:10467000EB2AEE2091F706C080E290E0B3010E94A1
:10468000EB2A8A948820C1F799CCF301668177815F
:10469000CB016196E2E10C946D29EDE9F7E011920E
:1046A00089E0E539F807D9F708959C0197FD37C0EF
:1046B00077FD35C08435910594F5603371057CF53F
:1046C000CB0173E0959587957A95E1F76770452B57
:1046D00099F0E4E58E9FF0011124E20FF31FE356F9
:1046E000F84F81E090E002C0880F991F6A95E2F7C9
:1046F0002081282B20830895E4E58E9FF00111246A
:10470000E20FF31FE356F84F81E090E002C0880FFC
:10471000991F6A95E2F780952081282320830895C8
:104720002F923F924F925F926F927F928F929F92C1
:10473000AF92BF92CF92DF92EF92FF920F931F93AF
:10474000DF93CF93CDB7DEB72E970FB6F894DEBFC9
:104750000FBECDBF7C016B014A0139011C870B875D
:1047600084179507F9F45B0110C0C701B5014B85AB
:104770005C850E945523C614D70424F40894A11C18
:10478000B11C03C00894A108B108C614D7042CF4C6
:104790006A147B040CF4FDC0E8CFA614B7040CF433
:1047A000F8C0E3CF62177307F9F45C0110C0C501CC
:1047B000B6014B855C850E945523E814F90424F466
:1047C0000894A11CB11C03C00894A108B108E81406
:1047D000F9042CF48A149B040CF4DBC0E8CFA81471
:1047E000B9040CF4D6C0E3CF4817590724F44701A5
:1047F0007A013B016901B4016E197F09882777FDB1
:104800008095982F0E94F2266F83788789879A87F0
:10481000B3016C197D09882777FD8095982F0E9438
:10482000F2266B837C838D839E832F813885498517
:104830005A850E9457261B012C0120E030E040E001
:1048400050E00E947C2887FF04C057FA509457F824
:104850005094DA82C9820F2EF0E0AF2EF0E0BF2E26
:10486000F0E0CF2EF0E0DF2EF02D7FC0C701698190
:104870007A814B855C850E945523C601B501A20152
:1048800091010E94EC253BC0C70169817A814B856B
:104890005C850E9455231E861D866B817C818D81DF
:1048A0009E8120E030E040E050E00E947C28181615
:1048B00024F421E030E03E872D8700E010E06B819A
:1048C0007C818D819E8120E030E040E050E00E94BC
:1048D0005026882314F401E010E08D859E85801B0E
:1048E000910BE981FA81E80FF91FFA83E983C60188
:1048F000B50120E030E040E85FE30E94EB255B017A
:104900006C0120E030E040E05FE30E947C288823D7
:10491000CCF06B817C818D819E8120E030E040E095
:1049200050E00E947C2818163CF429813A816216D6
:1049300073060CF0A9CF06C089819A818615970568
:104940000CF0A2CF6F81788589859A8520E030E0D0
:1049500040E050E00E947C28181624F40894E11CE2
:10496000F11C03C00894E108F1086F8178858985FE
:104970009A8520E030E040E050E00E947C28181644
:1049800024F48E149F042CF071CFE814F9040CF079
:104990006DCF2E960FB6F894DEBF0FBECDBFCF9170
:1049A000DF911F910F91FF90EF90DF90CF90BF901C
:1049B000AF909F908F907F906F905F904F903F90BF
:1049C0002F9008954F925F926F927F928F929F9255
:1049D000AF92BF92CF92DF92EF92FF920F931F930D
:1049E000CF93DF933B01490125E0429FA0011124B1
:1049F000ADE7EA2EA1E0FA2EE40EF51E8C01F1E0FF
:104A00004F2E512CE2E8AE2EE1E0BE2EA40EB51ED4
:104A1000F70184918114910409F48095C0E0D0E0FD
:104A2000C82EDD24BE01660D771DA2010C2E02C02A
:104A3000440F551F0A94E2F74C215D210C2E02C051
:104A4000559547950A94E2F7C8010E94552321968F
:104A5000C830D10539F70894E11CF11C0F5F1F4FD6
:104A6000EA14FB04A9F6DF91CF911F910F91FF90FB
:104A7000EF90DF90CF90BF90AF909F908F907F90FE
:104A80006F905F904F900895CF92DF92EF92FF92D8
:104A90000F931F93CF93DF936B017A01E901082FE6
:104AA00010E008C0802F90E0B6019E010E94E22431
:104AB0000B5F1F5FF701E10FF11D4081442391F768
:104AC000DF91CF911F910F91FF90EF90DF90CF90EA
:104AD0000895CF93DF9380E060E00E94DE25CDE96A
:104AE000D7E081E069910E947C2589E0C539D8072B
:104AF000C1F7DF91CF91089595B18295880F807E9F
:104B00009F7D982B95B95F9827E030E070E08F98F3
:104B1000CB01022E02C0959587950A94E2F780FF9B
:104B200002C02E9A01C02E988F9A215030408FEFEC
:104B30002F3F380761F75F9A08951F93182F579AF0
:104B4000249A259A269A879A2C985F9A2C9A80E024
:104B500061E20E947C25106880E0612F0E947C2524
:104B600080E064E00E947C2580E063E10E947C2577
:104B700080E06CE00E947C2580E060E20E947C2561
:104B800080E06CE00E947C2580E060E40E947C254F
:104B900080E060E80E947C251F910895CF93DF9309
:104BA000C0E0D0E081E060E00E947C25219681E0B9
:104BB000C83FD807B9F7DF91CF9108951F93182FF9
:104BC000606480E00E947C25106880E0612F0E9474
:104BD0007C251F9108955058BB27AA270ED02AC2C2
:104BE000F3D130F0F8D120F031F49F3F11F41EF4EE
:104BF000E8C10EF4E095E7FBB5C1E92F3DD280F3A3
:104C0000BA17620773078407950718F071F49EF5C9
:104C10006CC20EF4E0950B2EBA2FA02D0B01B9013A
:104C200090010C01CA01A0011124FF27591B99F022
:104C3000593F50F4503E68F11A16F040A22F232F2E
:104C4000342F4427585FF3CF469537952795A7957E
:104C5000F0405395C9F77EF41F16BA0B620B730B25
:104C6000840BBAF09150A1F0FF0FBB1F661F771F96
:104C7000881FC2F70EC0BA0F621F731F841F48F44B
:104C8000879577956795B795F7959E3F08F0B3CFD1
:104C90009395880F08F09927EE0F979587950895BB
:104CA0003DD108F481E008959ED1E395D4C10CD0A4
:104CB000C1C191D140F088D130F021F45F3F19F0AB
:104CC00051C1511113C27DC1D7D198F39923C9F3B2
:104CD0005523B1F3951B550BBB27AA276217730702
:104CE000840738F09F5F5F4F220F331F441FAA1FB6
:104CF000A9F333D00E2E3AF0E0E830D09150504076
:104D0000E695001CCAF729D0FE2F27D0660F771F23
:104D1000881FBB1F261737074807AB07B0E809F005
:104D2000BB0B802DBF01FF2793585F4F2AF09E3F9A
:104D3000510568F017C1DAC15F3FECF3983EDCF330
:104D4000869577956795B795F7959F5FC9F7880F13
:104D5000911D9695879597F90895E1E0660F771F65
:104D6000881FBB1F621773078407BA0720F0621BF6
:104D7000730B840BBA0BEE1F88F7E095089504D0EF
:104D80006894B111B3C108957FD188F09F5790F016
:104D9000B92F9927B751A0F0D1F0660F771F881F60
:104DA000991F1AF0BA95C9F712C0B13081F09DD1A0
:104DB000B1E008959AC1672F782F8827B85F39F03E
:104DC000B93FCCF3869577956795B395D9F73EF4BF
:104DD00090958095709561957F4F8F4F9F4F089567
:104DE000E89409C097FB3EF4909580957095619585
:104DF0007F4F8F4F9F4F9923A9F0F92F96E9BB273B
:104E00009395F695879577956795B795F111F8CFB6
:104E1000FAF4BB0F11F460FF1BC06F5F7F4F8F4F21
:104E20009F4F16C0882311F096E911C0772321F017
:104E30009EE8872F762F05C0662371F096E8862FAF
:104E400070E060E02AF09A95660F771F881FDAF706
:104E5000880F9695879597F9089530D180F09F3700
:104E600040F491110EF042C160E070E080E89FEBE9
:104E7000089526F41B16611D711D811D79C093C014
:104E8000A3D018F011F0A7D038F49BC02FC1E92FA0
:104E9000F3D0B0F35523C9F3E7FB62177307840718
:104EA0009507A8F199F3E92FFF2788232AF0319776
:104EB000660F771F881FDAF7952F5527442332F0A6
:104EC00091505040220F331F441FD2F7BB27E91BDC
:104ED000F50B621B730B840BB109C1F222F4620F54
:104EE000731F841FB11D31972AF0660F771F881F2B
:104EF000BB1FEFCF915050405AF041F0882332F061
:104F0000660F771F881F91505040C1F793954BC093
:104F10008695779567959F5FD9F7F8CF990F000829
:104F2000550FAA0BE0E8FEEF16161706E807F9077B
:104F3000C0F012161306E407F50798F0621B730B16
:104F4000840B950B39F40A2661F0232B242B252B97
:104F500021F408950A2609F4A140A6958FEF811D3A
:104F6000811D089597F99F6780E870E060E00895DB
:104F7000882371F4772321F09850872B762F07C070
:104F8000662311F499270DC09051862B70E060E0E4
:104F90002AF09A95660F771F881FDAF7880F969583
:104FA000879597F908959F3F31F0915020F48795A8
:104FB00077956795B795880F911D9695879597F981
:104FC00008959FEF80EC089500240A9416161706A2
:104FD00018060906089500240A94121613061406EA
:104FE00005060895EECF50D0E8F3E894E0E0BB2743
:104FF0009F57F0F02AED3FE049EC06C0EE0FBB0FE3
:10500000661F771F881F28F0B23A6207730784076C
:1050100028F0B25A620B730B840BE3959A9572F7E2
:10502000803830F49A95BB0F661F771F881FD2F720
:105030009048BBCF092E0394000C11F4882352F042
:10504000BB0F40F4BF2B11F460FF04C06F5F7F4FB4
:105050008F4F9F4F0895EF93E0FF06C0A2EA2AED1D
:105060003FE049EC5FEBC9DDE5DF0F90039401FC05
:105070009058EEE2F1E0ADC057FD9058440F551F37
:1050800059F05F3F71F04795880F97FB991F61F0CA
:105090009F3F79F087950895121613061406551F41
:1050A000F2CF4695F1DF08C0161617061806991FAD
:1050B000F1CF86957105610508940895E5DFA0F0AC
:1050C000BEE7B91788F4BB279F3860F41616B11DE8
:1050D000672F782F8827985FF7CF86957795679504
:1050E000B11D93959639C8F30895E894BB276627B8
:1050F0007727CB0197F9089511DF08F48FEF089512
:105100000BD098CF61DF28F066DF18F0952309F007
:1051100029CF57CF1124EACFAFDFA0F3959FD1F36A
:10512000950F50E0551F629FF001729FBB27F00D55
:10513000B11D639FAA27F00DB11DAA1F649F6627AA
:10514000B00DA11D661F829F2227B00DA11D621FF9
:10515000739FB00DA11D621F839FA00D611D221FB3
:10516000749F3327A00D611D231F849F600D211D97
:10517000822F762F6A2F11249F5750408AF0E1F03A
:1051800088234AF0EE0FFF1FBB1F661F771F881F83
:1051900091505040A9F79E3F510570F0E3CEA6CF45
:1051A0005F3FECF3983EDCF3869577956795B7956E
:1051B000F795E7959F5FC1F7FE2B880F911D969598
:1051C000879597F908959F930EDF0F9007FCEE5F88
:1051D00042CF9F938F937F936F93FF93EF939B01A6
:1051E000AC018EDFEF91FF9105D02F913F914F9150
:1051F0005F9186CFDF93CF931F930F93FF92EF9230
:10520000DF927B018C01689405C0DA2EEF0184DF08
:10521000FE01E894A5912591359145915591AEF304
:10522000EF01EBDCFE019701A801DA9479F7DF903A
:10523000EF90FF900F911F91CF91DF910895629FA2
:10524000D001739FF001829FE00DF11D649FE00D7E
:10525000F11D929FF00D839FF00D749FF00D659FDF
:10526000F00D9927729FB00DE11DF91F639FB00DDE
:10527000E11DF91FBD01CF011124089597FB092EEF
:1052800007260AD077FD04D043D006D000201AF4B8
:10529000709561957F4F0895F6F7909581959F4F92
:1052A00008952F923F924F925F926F927F928F92CA
:1052B0009F92AF92BF92CF92DF92EF92FF920F93A5
:1052C0001F93CF93DF93CDB7DEB7CA1BDB0B0FB6AF
:1052D000F894DEBF0FBECDBF09942A88398848886C
:1052E0005F846E847D848C849B84AA84B984C88402
:1052F000DF80EE80FD800C811B81AA81B981CE0FF9
:10530000D11D0FB6F894DEBF0FBECDBFED010895DD
:10531000AA1BBB1B51E107C0AA1FBB1FA617B707DB
:1053200010F0A61BB70B881F991F5A95A9F78095F7
:105330009095BC01CD010895A0E0B0E0E2EAF9E269
:105340000C945929EC01A880B980CA80DB80A11493
:10535000B104C104D10441F484E2A82E89EDB82E31
:105360008BE5C82E87E0D82EC601B5012DE133EFBD
:1053700041E050E00E94CA2B27EA31E440E050E0CF
:105380000E941F297B018C01C601B5012DE133EF7D
:1053900041E050E00E94CA2BCA01B9012CEE34EF63
:1053A0004FEF5FEF0E941F296E0D7F1D801F911F21
:1053B00097FF04C0615070408040904868837983B3
:1053C0008A839B839B013F77C901CDB7DEB7EAE0B3
:1053D0000C9475290E949C29089581E096E00E9412
:1053E0009C290895A0E0B0E0809301069093020606
:1053F000A0930306B09304060895283008F027E030
:105400003327DA01990F311D87FD91600096610500
:10541000710539F432602E5F3D9330E32A95E1F750
:1054200008959F3F30F080387105610509F03C5FB9
:105430003C5F3D93913008F08068911DDF93CF93DE
:105440001F930F93FF92EF92192F987F9695E92F54
:1054500096959695E90FFF27E95AFB4F9927332731
:10546000EE24FF24A701E70105900894079428F48F
:10547000360FE71EF81E491F511D660F771F881F44
:10548000991F0694A1F70590079428F4E70EF81EDB
:10549000491F561FC11D770F881F991F661F06944D
:1054A000A1F70590079428F4F80E491F561FC71F4F
:1054B000D11D880F991F661F771F0694A1F70590CD
:1054C000079420F4490F561FC71FD81F990F661F56
:1054D000771F881F0694A9F784911095177041F0E3
:1054E000D695C79557954795F794E7941A95C1F7C0
:1054F000EDEFF3E0689415901591359165919591D4
:1055000005907FE27395E118F10A430B560BC90B26
:10551000D009C0F7E10CF11E431F561FC91FD01D53
:105520007EF4703311F48A95E6CFE894015030F0A0
:10553000080F0AF40027021708F4202F2395022FE2
:105540007A3328F079E37D932A95E9F710C07D93AB
:105550002A9589F606949795679537951795179428
:10556000E118F10A430B560BC90BD00998F02395AB
:105570007E9173957A3308F070E37C932013B8F72B
:105580007E9170617D9330F0839571E37D9370E33C
:105590002A95E1F71124EF90FF900F911F91CF9181
:1055A000DF91992787FD90950895FC010590615042
:1055B00070400110D8F7809590958E0F9F1F089529
:1055C000FC016150704001900110D8F780959095D2
:1055D0008E0F9F1F08950F931F93CF93DF938C011E
:1055E000EB018B8181FF1BC082FF0DC02E813F81AB
:1055F0008C819D812817390764F4E881F981019332
:10560000F983E88306C0E885F985802F0995892B01
:1056100031F48E819F8101969F838E8302C00FEFAC
:105620001FEFC801DF91CF911F910F910895AEE058
:10563000B0E0EDE1FBE20C945F290D891E898F89B2
:10564000988D97FF02C080E090E801979E838D833C
:105650001A83098386E08C839E01255E3F4FCE012D
:105660000196698D7A8DA9010E94C61F4D815E81C8
:1056700057FD0AC02F813885421753070CF49A0151
:10568000020F131FF80110822E96E4E00C947B2980
:10569000AEE0B0E0EEE4FBE20C945F290D891E89D8
:1056A00086E08C831A8309838FEF9FE79E838D8327
:1056B0009E01275E3F4FCE0101966F89788DA9012B
:1056C0000E94C61F2F813885020F131FF801108218
:1056D0002E96E4E00C947B29FA01AA27283051F198
:1056E000203181F1E8946F936E7F6E5F7F4F8F4F13
:1056F0009F4FAF4FB1E03ED0B4E03CD0670F781F72
:10570000891F9A1FA11D680F791F8A1F911DA11D56
:105710006A0F711D811D911DA11D20D009F468948F
:105720003F912AE0269F11243019305D3193DEF637
:10573000CF010895462F4770405D4193B3E00FD0ED
:10574000C9F7F6CF462F4F70405D4A3318F0495DD8
:1057500031FD4052419302D0A9F7EACFB4E0A695BB
:105760009795879577956795BA95C9F700976105DD
:10577000710508959B01AC010A2E06945795479533
:1057800037952795BA95C9F7620F731F841F951F28
:10579000A01D089597FB092E05260ED057FD04D0B5
:1057A00014D00AD0001C38F45095409530952195BE
:1057B0003F4F4F4F5F4F0895F6F790958095709546
:1057C00061957F4F8F4F9F4F0895A1E21A2EAA1B1C
:1057D000BB1BFD010DC0AA1FBB1FEE1FFF1FA217A1
:1057E000B307E407F50720F0A21BB30BE40BF50B9E
:1057F000661F771F881F991F1A9469F76095709527
:10580000809590959B01AC01BD01CF010895F8945E
:02581000FFCFC8
:105812006E393537363332310041535452445A00CF
:105822006F6F6F6F6F6F6F2020202020202020204D
:10583200202020202020202020202020206F6F6F79
:105842002020202020202020202020202020202056
:1058520020206F6F6F6F6F6F6F6F6F6F6F6F6F6FF4
:105862006F6F202020202020202020202020206F49
:105872006F6F6F6F6F6F6F6F6F6F6F6F6F6F6F6F36
:105882006F6F6F6F6F6F6F6F6F6F6F6F6F6F6F6F26
:105892006F6F6F6F202020202020202020202020CA
:1058A200206F6F6F20202020202020202020202009
:1058B2002020202020206F6F6F6F6F6F6F202020BD
:1058C20020202020202020202020202020202000F6
:1058D2000A005465656E73793A0D0A006C65667448
:1058E2003A206D6F7665206C6566740D0A007269E8
:1058F2006768743A206D6F76652072696768740D07
:105902000A0075703A20666972650D0A00646F7745
:105912006E3A2073656E64202B20646973706C612B
:10592200792067616D65207374617475730D0A0067
:1059320063656E7472653A2070617573650D0A0055
:105942006C65667420627574746F6E3A207374614C
:1059520072742F72657365740D0A007269676874D8
:1059620020627574746F6E3A20717569740D0A0045
:105972006C65667420776865656C3A2061696D2094
:105982007475727265740D0A0072696768742077A3
:105992006865656C3A207365742073706565640D83
:1059A2000A0A00436F6D70757465723A0D0A0061E0
:1059B2003A206D6F7665206C6566740D0A00643A54
:1059C200206D6F76652072696768740D0A00773AF8
:1059D2002066697265200D0A00733A2073656E6451
:1059E200202B20646973706C61792067616D65207A
:1059F2007374617475730D0A00723A207374617264
:105A0200742F72657365740D0A00703A20706175A7
:105A12007365200D0A00713A20717569740D0A00D0
:105A22006F3A2061696D207475727265740D0A0097
:105A32006D3A207365742073706565640D0A006C9D
:105A42003A20736574206C697665730D0A00673AB3
:105A5200207365742073636F72650D0A003F3A20EC
:105A62007072696E7420636F6E74726F6C730D0A5C
:105A720000683A206D6F766520736869700D0A00C0
:105A82006A3A20706C6163652061737465726F6934
:105A9200640D0A006B3A20706C61636520626F7559
:105AA2006C6465720D0A00693A20706C616365204E
:105AB200667261676D656E740D0A0054696D653AB0
:105AC2002025643A25640D0A0054696D653A202543
:105AD200643A3025640D0A0054696D653A20302518
